:020000040800F2
:1000000000040020DD01000821330008213300082E
:100010002133000821330008213300082133000870
:100020002133000821330008213300086538000817
:100030002133000821330008213300082133000850
:100040002133000821330008213300082133000840
:100050002133000821330008213300082133000830
:100060002133000821330008213300082133000820
:100070002133000821330008213300082133000810
:100080002133000821330008213300082133000800
:10009000854100082133000821330008213300087E
:1000A00021330008213300082133000821330008E0
:1000B000DD40000821330008213300082133000807
:1000C00021330008213300082133000821330008C0
:1000D00021330008213300082133000821330008B0
:1000E00021330008213300082133000821330008A0
:1000F0002133000821330008213300082133000890
:10010000213300082133000821330008213300087F
:10011000213300082133000821330008213300086F
:10012000213300082133000821330008213300085F
:10013000213300082133000821330008213300084F
:10014000213300082133000821330008213300083F
:10015000213300082133000821330008213300082F
:0C016000C147000895010008710100086B
:1001700010B5054C237833B9044B13B10448AFF3E1
:1001800000800123237010BD5010002000000000EB
:10019000145100080C4B43B10C4810B50C49AFF397
:1001A00000800C48036823B910BD0A48036833B9BE
:1001B0007047094B002BF7D0BDE810401847064B9D
:1001C000002BF5D0184700BF0000000014510008B4
:1001D000541000204C1000200000000072B6264889
:1001E00080F3098825484EF60851CEF200010860D8
:1001F000022080F31488BFF36F8F03F06FF804F0D0
:1002000086FA4FF055301E491E4A91423CBF41F8D4
:10021000040BFAE71C49184A91423CBF41F8040B11
:10022000FAE71A491A4A1B4B9A423EBF51F8040B8F
:1002300042F8040BF8E700201749184A91423CBFE6
:1002400041F8040BFAE703F04DF803F048F8144CBA
:10025000144DAC4203DA54F8041B8847F9E702F066
:10026000C1FF114C114DAC4203DA54F8041B88470E
:10027000F9E703F035B80000000C0020000000088A
:100280000000002000040020000400201451000899
:10029000000C00204C10002050100020D817002027
:1002A0006001000868010008680100086C0100088E
:1002B0002DE9F04FC1F80CD0C3689D46BDE8F08F22
:1002C000002383F311882846A047002003F050FA4A
:1002D00003F0DCF900DFFEE7844641EA000313F097
:1002E000030349D1403A23D30B6803604B68436052
:1002F0008B688360CB68C3600B6903614B694361A2
:100300008B698361CB69C3610B6A03624B6A436289
:100310008B6A8362CB6AC3620B6B03634B6B436371
:100320008B6B8363CB6BC36340304031403ADBD28D
:1003300030320BD30B6803604B6843608B6883607B
:10034000CB68C36010301031103AF3D20C3205D3B1
:1003500051F8043B40F8043B043AF9D2043208D087
:10036000D2071CBF11F8013B00F8013B01D30B88F9
:1003700003806046704700BF082A13D38B07B1D0B3
:1003800010F00303AED0C3F10403D21ADB071CBF85
:1003900011F8013B00F8013BA4D331F8023B20F8EF
:1003A000023B9FE7043AD9D3013A11F8013B00F828
:1003B000013BF9D20B7803704B7843708B788370D4
:1003C00060467047A0F5B940743810B50C4608284F
:1003D0001CD8DFE800F0050B0F1D13252A2F340071
:1003E0008B789BB1184800F034F90FE08B786BB133
:1003F0001648F8E78B784BB11548F4E78B782BB1AA
:10040000012001F07EFE042001F080FE012010BDDD
:100410008B782BB1002001F074FE042001F076FEF1
:10042000A378002BF2D00B48DDE78B78002BEDD0C2
:100430000948D8E78B78002BE8D00848D3E78B78B9
:10044000002BE3D00648CEE7304C0008364C0008BD
:100450003C4C0008424C0008494C0008504C000835
:10046000574C000808B500F0070301209840C0B2BF
:1004700001F056FFBDE8084001F0A2BFFFF7F2BF50
:1004800008B500F0070301209840C0B201F050FF0A
:10049000BDE8084001F094BFFFF7F2BFA0F58073FC
:1004A000B3F5F85F70B505460C4612D2E80501D5E4
:1004B000E0208847A90501D5E120A0476A0501D5BC
:1004C000E220A0472B0501D5E320A047B5F5805FCA
:1004D00000D270BDE420A047E520A047E620A04759
:1004E0002346BDE87040E72018470000A0F1E00374
:1004F000072B10B5044600D940B920460449FFF740
:10050000CDFFE0B2BDE8104000F0C8BE0149F6E7FB
:10051000650400087D04000810B50446C0B200F070
:10052000A3FFA4F1E003072B00D92CB9034920460F
:10053000BDE81040FFF7B2BF0149F8E781040008A9
:100540009904000810B50446FFF7D0FF2046BDE827
:100550001040FFF7E1BF0120704708B5FFF732FFF9
:1005600008BD000013B502AB03E903000E4B1B7876
:10057000ABB99DF8023000986BB101F047FE04461C
:100580000146009801F0FCFD2046009902B0BDE84C
:10059000104000F079B901F019FE0446F4E7009824
:1005A00001F034FE0099F1E7A41000200346006832
:1005B0009988FFF7D7BF000070B50E4B1E5C0E4B3D
:1005C000C45C0E4BC55C14B1E12000F067FE15B1B0
:1005D000E62000F063FE304600F0B0FF15B1E620E3
:1005E00000F042FF24B1BDE87040E12000F03CBFC4
:1005F00070BD00BFDE4C00085E4D00085E4C000878
:1006000070B504460E46207810B3012804F10105A8
:1006100007D16478204600F041FE204600F024FF18
:1006200004E002280DD1607800F038FE2C463546F3
:100630000134002DE7D00220013D03F09EF8EDB219
:10064000F7E7032801D16078E8E7FFF7B5FFEEE7A9
:1006500070BD0021FFF7D4BF08B501F00FFF08B946
:1006600001F06EFF00F00CFCBDE8084000F027BB75
:1006700000F02ABB10F00F0005D0092892BF1D30F2
:10068000063880B2704727207047704708B5FFF7DB
:10069000FCFF08BD08B5FFF7F9FF08BD704708B5B6
:1006A00001F0A0F9FFF7FAFF4FF4FA7003F065F8D4
:1006B000BDE8084002F016B838B50546FFF776FFEA
:1006C00029460446FFF749FF08B9002038BD2946EE
:1006D000204600F043FC0028F7D02946204600F0D1
:1006E000B3FC0028F1D045F614439C4200F2AF80E1
:1006F00045F602439C4219D2B4F5B84F07D045F6EF
:1007000001439C4209D02846FFF725FF38BDAB784E
:10071000002BDAD0FFF7C3FFD7E7AB78002BD4D09C
:10072000534A137843F001031370CEE7AB78002BE4
:10073000E9D001F0A3FE08B901F002FF01F0AEFE1E
:10074000A4F5B8444B4B033C1880112C0AD8DFE8C1
:1007500004F013171B1F23272B2F33373B3F43472F
:100760004B4F53571A7842F001021A70187801F073
:1007700098FE01F037F9A8E71A7842F00202F4E790
:100780001A7842F00402F0E71A7842F00802ECE727
:100790001A7842F01002E8E71A7842F02002E4E703
:1007A0001A7842F04002E0E71A7842F08002DCE773
:1007B0001A7842F00C02D8E71A786FF30002D4E7F7
:1007C0001A786FF34102D0E71A786FF38202CCE710
:1007D0001A786FF3C302C8E71A786FF30412C4E7FC
:1007E0001A786FF34512C0E71A786FF38612BCE7E8
:1007F0001A786FF3C712B8E71A7802F0FB02E8E73D
:100800001A78C2F3C01181F0010161F3C712ACE79D
:1008100001F064FDA978184A184B79B100F0AA00DC
:10082000002814BF012100211868117014BF352160
:10083000292101F0BCFE01F0C3FD46E712781868DB
:10084000002A14BF3521292101F0B3FEF3E745F654
:1008500016439C42DCD045F6DE439C427FF453AF06
:10086000AB78002B3FF431AF01F06AFE2DE700BFFB
:100870003A1100204C1500206C100020000C0020C4
:100880000020704770470000462250430E22C1F3FB
:10089000072302FB0303C9B2034A0B4432F81300D7
:1008A00082B002B0704700BFE8480008014B33F83F
:1008B00010007047DE4D000813B5ADF80410019923
:1008C000FFF7E2FF00F05EF9B0F5A04F044630D22A
:1008D000B0F5804F80F0D980E72816D8E0287CD288
:1008E000A72808D8A5286ED2012876D001D30428DD
:1008F00073D2002471E0BE2872D9C028F9D3C03861
:1009000080B2FFF7D3FF044667E0B0F5005F09D27D
:10091000B0F5807F80F0AD80F028EAD340F4A044A9
:10092000A4B25AE0B0F5405F80F0A680C0F30B009F
:10093000E7E7B0F5AA4F1ED2B0F5A84FC3B280F0DA
:10094000C380B0F5A44F08D2B0F5A24FC0F0A2808A
:100950004AF2F10040EA03243FE0B0F5A64F80F0F0
:10096000A9800124980803F003039C4044EA401442
:1009700044F40C44D4E7B0F5B24F0FD2B0F5B04F09
:1009800080F0A780B0F5AC4FB3D2C0B200F066F9EA
:10099000040204F4F85444F400541EE0B0F5B44FDB
:1009A000C0F09C80A0F5C043B3F5005FA1D2C0F3B6
:1009B000042000F053F9E4B2000244F4005400F4BF
:1009C000F850044309E000F0988044F2820344F2B6
:1009D0008302A62814BF14461C46204602B010BD50
:1009E000A82800F08D80A92800F08D80AA2800F0AA
:1009F0008D80AB2800F08D80AC2800F08D80BB2866
:100A000000F08D80BC2800F08D80AD2800F08D8036
:100A1000B02800F08D80AE2800F08D80AF2800F067
:100A20008D80B12800F08D80B22800F08D80B32831
:100A300000F08D80B42800F08D80B52800F08D8006
:100A4000B62800F08D80B72800F08D80B82800F01F
:100A50008D80B92800F08D80BD2800F08D80BE28E3
:100A600000F08D80BA2844F22A6418BF4FF48844FD
:100A7000B3E7C0F30C04B0E710F4006FC4B214BFC6
:100A800044F4484444F44044A7E7C0F30B0444F45E
:100A90002044A2E7012403F003029440C0F30110B4
:100AA00044F40C4444EA0024C3F3810344EA4313AE
:100AB0009CB292E70124980803F003039C4044EAA7
:100AC000401444F40A442BE74AF2F40444EA0324B1
:100AD00083E74AF2F00040EA042421E700F00F0027
:100AE00000F0BCF8C4F3031400F00F0040EA042443
:100AF00044F4204444F0E0046FE744F281046CE7DE
:100B000044F2E24469E744F2E94466E744F2EA4425
:100B100063E744F2B54460E744F2B6445DE744F26B
:100B2000B3445AE744F2B44457E744F2B74454E7B5
:100B300044F2CC4451E744F2CD444EE744F28354AE
:100B40004BE744F28A5448E744F2925445E744F2B2
:100B5000945442E744F221643FE744F223643CE7C3
:100B600044F2246439E744F2256436E744F226640B
:100B700033E744F2276430E744F26F442DE744F250
:100B800070442AE782281AD00CD8312854D004D8CF
:100B900029284AD02A2856D0704735283ED03928EF
:100BA0000DD07047E32823D004D8E0280ED0E228E7
:100BB00013D07047E62822D0E72829D07047264B6B
:100BC0001B7813F0030F18BFE0207047224B1B78EF
:100BD00013F0010F18BF392070471F4B1B785907BE
:100BE0001BD513F0100F08BFE32018BF002070477B
:100BF000194B1B785A072DD413F0100FF5E7164B3D
:100C00001B78190709D513F0100F08BFE720ECE790
:100C1000114B1B781A07EFD5E62070470E4B1B7857
:100C200013F0200F18BF292070470B4B1B7813F0CF
:100C3000200F18BF35207047074B1B7813F0400F6B
:100C400018BF2A207047044B1B7813F0400F18BFC1
:100C500031207047E22070474C150020164B1B785E
:100C6000590707D500F01802082A12D100F0F70042
:100C700040F004001A0707D500F01802182A11D115
:100C800000F0E70040F01400DB0648BF00F0E7008A
:100C9000704700F01402042A04BF00F0FB0040F08B
:100CA0000800E7E700F01402142A04BF00F0EB008C
:100CB00040F01800E8E700BF4C150020704708B569
:100CC000FFF7FCFF08BD704708B5FFF7FCFF08BD44
:100CD000014B33F8100070476E1000207047000081
:100CE00070B500240125184E56F82400022200F0A9
:100CF0000F0105FA01F120F00F00013403F0BCF9F7
:100D0000052CF1D100240125104E56F824000322B1
:100D100000F00F0105FA01F120F00F00013403F09B
:100D2000ABF90E2CF1D1002003460949094A21F8FC
:100D3000103022F8103001300528F8D100F06AF8A0
:100D4000FFF78AFC70BD00BF184E0008E04D000898
:100D5000781000206E1000202DE9F74F00254FF08D
:100D600001082F46AA46264EDFF8A4B05BF82540BE
:100D7000738824F00F0904F00F0408FA04F4062223
:100D8000214648460193A6F802A003F075F9C9F878
:100D90001440012002F0F1FC00217288194B53F835
:100DA000210012B220F00F0EDEF808E000F00F0074
:100DB0002EFA00F0C0074CBF002008FA01F0013104
:100DC00002430E2992B2EAD172802146032248469C
:100DD00003F052F936F8023F019A0135934218BFE9
:100DE00047F00107052DC1D13B462A460649074871
:100DF00000F012F8FFF73CFC012003B0BDE8F08FD3
:100E000076100020E04D00086E10002078100020C1
:100E1000184E000870470000F8B506460F46154604
:100E20000D4C2BB10123237001F050FC0B4B1880AB
:100E3000237853B1094B188801F04DFC052804D9DB
:100E40000023AB4202DB00232370F8BD36F81320E9
:100E500027F813200133F4E78210002084100020CB
:100E6000030410B5044609D58B783BB100F01AF89D
:100E7000C4F30E0000F062F800F042F8012010BD4B
:100E800008B50C2001F09CFC014B186008BD00BFA8
:100E900088100020024B0C20197801F099BC00BF8B
:100EA0008810002008B501F019FA134B187001F0F2
:100EB00031FA124B1B78042B07D8DFE803F0030B41
:100EC00010061700E22000F0E9F9BDE80840142000
:100ED00002F053BC4FF44670FFF734FBF5E7E22015
:100EE00000F0DCF9572000F029FBEEE7E62000F0E7
:100EF00025FB1820F7E700BF8C1000208810002089
:100F000008B50C4B1B78042B0BD8DFE803F0070364
:100F1000070A10002C2000F011FB02E0E22000F094
:100F2000A3FA054B1878BDE8084001F0EDB9282078
:100F3000F1E700BF881000208C10002038B505466E
:100F40000C2445FA04F000F00F00FFF793FB043C7B
:100F5000C0B200F0F3FA231DF3D138BD38B58B7859
:100F600004460D4673B1A0F5B943613B042B09D883
:100F7000DFE803F0030E101214000022084B1A7071
:100F8000FFF788FF29462046BDE83840FFF768BFD5
:100F90000122F3E70222F1E70322EFE70422EDE763
:100FA000881000202DE9F0411F4683780C46164634
:100FB000DFF8908001F120058BB188F8001001F076
:100FC00085FBEDB21E4B072D188036D8012004F0AA
:100FD0000704A040C0B2BDE8F04100F0B8BAEDB2DD
:100FE000072D06D8012001F007039840C0B200F099
:100FF000B7FA98F80030A3421FD1114B188801F0BE
:101000006AFBC72819D806F12004E4B2072C06D8D9
:10101000012006F007039840C0B200F098FA384665
:1010200000F08CFA072C08D8012006F00706B04023
:10103000C0B2BDE8F04100F093BABDE8F08100BF56
:101040008E1000208D10002008B545F6F0420346B2
:101050009342084624D012D845F6D84293421CD079
:1010600045F6D942934227D045F6D74293420FD155
:101070002623E1221146FFF795FF002008BD45F623
:10108000F242934212D00ED345F6F342934210D06F
:1010900000220B4B01201A7008BD2723E522E9E747
:1010A0002623E022E6E72723E422E3E72623E222C1
:1010B000E0E72723E622DDE728230122E521DAE71E
:1010C0008D100020014B1860704700BF9010002069
:1010D000024B186808B10368184770479010002049
:1010E000024B1B680BB15B681847704790100020DB
:1010F000034B1B681BB1022101709B6818477047A6
:1011000090100020054B1988814205D01880044BAF
:101110001B680BB1DB681847704700BF96100020B2
:1011200090100020054B1988814205D01880044B8F
:101130001B680BB11B691847704700BF9410002053
:10114000901000207047704708B5FFF7FCFF08BDFE
:10115000704708B5FFF7FCFF08BD08B5FFF7F2FFC1
:10116000FFF7F2FF08BD0120704708B501F07AFAD9
:10117000FFF7B6FD01F018FCFFF7EBFF08BD00001C
:101180002DE9FF47FFF7E8FDFFF7EDFF10BBFF2359
:101190008DF808308DF8093000238DF80A3001F001
:1011A00095FA40F00100ADF80C0004AB13E9030020
:1011B00000F05CF801F088FDFFF78AFF284C2378E7
:1011C00083424AD0FFF784FF207004B0BDE8F047A7
:1011D000FFF760BA234E00243746DFF88C905FFAA1
:1011E00084F84046FFF774FD36F814508246A84252
:1011F00003D10134052CF2D1C9E799F800309807E2
:1012000001D5FFF76BFD00238AEA0505ADB245FA6B
:1012100003F1C907DAB21CD501259D401AEA050F72
:1012200014BF012300238DF800208DF802308DF8C3
:10123000018001F04BFA40F00100ADF804009DE898
:10124000030000F013F837F814306B4027F814301F
:10125000B0E701330E2BDAD1CBE704B0BDE8F0875D
:10126000981000209A1000203A1100201FB58DE838
:101270000300002102AA03919DE803000290ADF84B
:101280000C1092E8030000F033FE05B05DF804FB9B
:1012900008B5008800F0DCFF08BD000010B501466D
:1012A000002800F0DE80822816D1FFF711FF8107A9
:1012B00000F1D7806B4C3921206801F078F901F0FA
:1012C0007FF8C82002F059FA3921206801F071F93D
:1012D000BDE8104001F074B8832810D1FFF7F8FE84
:1012E000C20700F1BE805F4C5321206801F05FF916
:1012F00001F066F8C82002F040FA5321E5E784289F
:1013000010D1FFF7E5FE430700F1AB80554C4721B4
:10131000206801F04CF901F053F8C82002F02DFAD2
:101320004721D2E7031FDBB2A02B04D84D4B18682E
:1013300001F03DF9CCE700F12003DBB2072B07D821
:1013400000F0070101208840C0B200F0CDFFBFE7E8
:1013500000F15B03DBB2022B0BD8A52807D0A6282F
:101360000CBF82208320BDE81040FFF7CBBE812058
:10137000F9E700F15803DBB2162B6AD8A82832D05F
:10138000A92832D0AA2832D0AB2832D0AC2832D00B
:10139000BB2832D0BC2832D0AD2832D0B02832D0D1
:1013A000AE2832D0AF2832D0B12833D0B22834D0D2
:1013B000B32835D0B42836D0B52837D0B62838D0A1
:1013C000B72839D0B8283AD0B9283BD0BD283CD06E
:1013D000BE283CD0BA2840F22A2018BF0020BDE821
:1013E0001040FFF79FBEE220F9E7E920F7E7EA2087
:1013F000F5E7B520F3E7B620F1E7B320EFE7B42037
:10140000EDE7B720EBE7CC20E9E7CD20E7E740F2B6
:101410008310E4E74FF4C570E1E74FF4C970DEE7ED
:101420004FF4CA70DBE740F22120D8E740F22320D6
:10143000D5E74FF40970D2E740F22520CFE740F21C
:101440002620CCE740F22720C9E76F20C7E77020AD
:10145000C5E7EF2805D901F02BFBBDE8104001F0EE
:1014600025BC10BD000C002010B50146002862D03C
:10147000822812D1FFF72CFE81075CD52E4C392132
:10148000206801F094F800F09BFF3921206801F0FA
:1014900090F8BDE8104000F093BF83280CD1FFF70F
:1014A00017FEC20747D5244C5321206801F07FF86E
:1014B00000F086FF5321E9E784280CD1FFF708FEEE
:1014C000430738D51C4C4721206801F070F800F024
:1014D00077FF4721DAE7031FDBB2A02B02D8164BB8
:1014E0001868D4E700F12003DBB2072B07D800F01F
:1014F000070101208840C0B200F0FEFEC9E700F1FC
:101500005B03DBB2022B04D8BDE810400020FFF7DC
:10151000F9BD00F15803DBB2162B04D8BDE810402A
:101520000020FFF7FFBDEF2805D901F035FBBDE82E
:10153000104001F0BBBB10BD000C002010B50446EC
:10154000FFF7ACFE2046BDE81040FFF78DBF08B5A1
:1015500028B100F0C9FEBDE8084000F031BF08BD69
:1015600008B528B100F0C8FEBDE8084000F028BF6B
:1015700008BD00002DE9F04790F806A085780746E1
:101580000C464FEA1A1A0DB100F0DAFE00F09CFE8C
:10159000804670B125B304F12003DBB2072B1FD9BD
:1015A000022000F053FF00F08FFE80F001005FFA90
:1015B00080F8C4F30339B9F10F0F42D8DFE819F00E
:1015C00013001300490049009600B7004100410094
:1015D000EB00410042014201A80141004100C60167
:1015E0004FF00008E5E7C4F3072313F0F00F16BF30
:1015F0002609C4F3032606F0F006E4B295B156B10D
:1016000004F12003DBB2072B304600D93CB900F0CF
:101610006BFE00F0D5FE2046FFF740FE11E000F023
:101620007FFEF6E72046FFF71FFF56B104F12003C7
:10163000DBB2072B304600D944B900F05DFE00F064
:10164000BFFEB9F10B0F00F26B8154E000F070FEA9
:10165000F5E7C4F3072303F0F003202B18BF260996
:10166000E0B20CBFC4F3032606F0F00660B1012817
:101670002CD0ADB3BAF1000F2CD0BB79D907CBD5A4
:101680006FF30713BB7125E09DB1BAF1000F06D1CE
:1016900000F072FE3043C0B2FFF759FFD1E7BAF154
:1016A000010FF5D100F068FE3043C0B200F070FECB
:1016B000C7E7BAF1000F05D100F076FE3046FFF71C
:1016C0004FFFBEE7BAF1010FF6D1BAE725B1BAF183
:1016D000050FB6D83046DFE7BAF1040FB1D8EDE711
:1016E000BAF1000FEAD0FFF7BFFEAAE7C4F38123E7
:1016F0006BB1012B13D0012303FA09F919F4506FD0
:1017000000F00E81FFF7E4FCFEF7C4FF08E125B10D
:10171000C4F30900FFF7F6FCEDE72846FAE725B128
:10172000C4F30900FFF7FEFCE5E72846FAE7E0B25C
:10173000CDB1F5280DD0F62810D0F42804D1884A70
:10174000136843F00103136001F0B2F901F0AEFA3F
:10175000D1E7834A136843F00203F4E7804A136831
:1017600043F00403EFE7F5280BD0F6280ED0F42859
:1017700004D17B4A136823F00103136001F00CFAD3
:10178000E4E7774A136823F00203F6E7744A136824
:1017900023F00403F1E714F4407F26D1002DB1D1EA
:1017A000C4F342108000E206C3B204F00F0000FA56
:1017B00003F648BF0F20C4F3812446BF9840C043BE
:1017C0002846022C07D00AD8012C40EA060009D08E
:1017D00000F072FC8FE7304300F076FC8BE700F0FE
:1017E0006BFC304600F060FC85E7F5B1C4F30023E4
:1017F000002B87D0C4F342108000C3B204F00F0066
:1018000000FA03F514F0100018BF0F20C4F3812470
:101810001CBF9840C043022C0AD00DD8012C40EACE
:1018200005000CD000F09AFC65E7C4F34023DFE725
:10183000284300F09BFC5EE700F090FC284600F097
:1018400085FC58E7E6B2A6F1E003142B50D8DFE898
:1018500003F00B0B0B0B0B0B0B0B0B0B0B0B0B0BFB
:101860000B0B16232930390006F00F06C4F30420B1
:1018700015B100F04BFC2DE700F052FC1EE745B11E
:10188000BAF1040F3FF6DDAEC4F3042000F054FCBF
:10189000D7E6BAF1050FF5E735B1C4F3042000F03F
:1018A00035FCCEE6002DF8D0C4F3042000F038FC5F
:1018B000C7E625B1C4F3042000F023FCC1E600F024
:1018C0001DFCBEE64DB1C4F30424204600F01EFC0E
:1018D0000321204600F0A0FDB3E6012000F0B6FD94
:1018E000BAF1010F7FF6ADAE022000F0AFFDA8E621
:1018F00025B1BAF1000FD0D030468DE6BAF1000F15
:10190000D2D0392E02D1A02001F037FF3046EAE6CE
:10191000C4F30322E1B23846FEF7B2FF00F056FBF3
:10192000B8F1000F19D000F0C7FC10F0010014D17D
:10193000B87000F0B9FC00F0E9FB384600F012F88E
:1019400000F0B2FCBDE8F04700F0EABBC4F30322AC
:10195000E1B23846FEF796FFE2E7BDE8F08700BF48
:10196000A810002037B5838802880446ADF804200B
:10197000BBB14FF6FF72BDF804309A1A534253417F
:101980007BB9FEF799FE60B12188A07800F06CFC6D
:10199000054600F0F3FB00F083FB29462046FFF7E5
:1019A000E9FD03B030BD08B500F0CAFC00F0DEFC74
:1019B00000F006FD01F008FA01F078F90020FFF7C9
:1019C000A1FBBDE808400020FFF7ACBB08B5044B05
:1019D000186800F0F0FDBDE80840FFF7E4BF00BF65
:1019E000000C002008B500F095FCBDE80840FFF7AA
:1019F000EDBFC0F303330E3303F00F020D2A0CD8F2
:101A00000123934013F4105FC1B217D140F20330A9
:101A1000184004D113F010030BD100207047F029B7
:101A200002D003D8DF29F8D801207047F429F4D177
:101A3000FAE7DF29F8D9F129F6D07047C0F3C020C2
:101A4000704707B5ADF80400019800F001FCFFF7FE
:101A5000D0FF03B05DF804FB82B002AB03E90300E2
:101A600002B0704782B002AB03E9030002B07047D6
:101A700070B5094B094E1C78094D3378A34200D14B
:101A800070BD05EBC40355F8340059680134FFF705
:101A9000E9FF04F00704F0E7F5100020F41000203F
:101AA000B4100020024B18685968FFF7DBBF00BF75
:101AB000AC100020284A2DE9F34193791B090CD181
:101AC000937853B14FF6FF76244BDFF898E01978FE
:101AD000234D9EF800308B4202D102B0BDE8F08168
:101AE0009388002B33D0177892F801C08DF80470DA
:101AF0008DF805C0BDF80400B04228D0C8002C18ED
:101B000094F80180E04522D115F831C0BC451ED1C2
:101B1000A778E7B9A488A3428ABFF31AE31A1B196E
:101B2000C72BCCBF002301238BB10121937961F333
:101B3000071393712B189A79074861F307129A716A
:101B4000FFF710FF02B0BDE8F041FFF791BF013190
:101B500001F00701BDE700BFAC100020F510002028
:101B6000B4100020F41000202DE9F0430646BC4CD0
:101B700000688FB00890A788208808A93278737809
:101B800096F80280B6F80490ADF80400002F00F03B
:101B9000228185B24FF6FF70854200F01C81A57846
:101BA000002D00F018814F458ABFC71BA9EB07071E
:101BB0004F44C72FCCBF00270127002F00F0BF8064
:101BC000A179258811F0F00F4FF6FF7075D185428D
:101BD0001BD028468DF820208DF82130BDF82050EC
:101BE000854212D14546B8F1000F0ED1012363F3AF
:101BF0000711A171FFF756FF9948FFF7B3FEA379CC
:101C0000B37128460FB0BDE8F0834546B9F1000F27
:101C10004AD04FF6FF718DF81C208DF81D30BDF8AD
:101C20001C00884240D0002D41D18E488E4990F84A
:101C300000E009788D4871450FD18DF820208DF88E
:101C40002130089800F004FBC0F30332C3B2032A2A
:101C50001DD8DFE802F01313212100EBC10494F832
:101C600001C09C4506D110F831C0944502D1A4783A
:101C7000002CC6D1013101F00701DCE710F4706FD0
:101C800001D0002BBDD02033DBB2072BB9D93046B1
:101C9000FFF768FE3D46B4E710F4706FF3D0B279F9
:101CA00012F0F00FEFD1ACE7B8F1000FA9D0A37993
:101CB00043F00103A3710025A3E7854216D028460F
:101CC0008DF820208DF82130BDF8205085420DD1AF
:101CD000B8F1000F0AD1B1713046FFF743FE336807
:101CE000236073686360FFF7DDFED3E78DF8202083
:101CF0008DF821300898FFF7A4FEE0B1B8F1000F8D
:101D000019D0A3791F2B0CD92288ADF82C90ADF8EF
:101D1000282000228DF82E308DF82A200AA8FFF7FF
:101D200021FE3368236073686360FFF7C3FEFFF72B
:101D3000B9FE012565E73046FFF714FEF9E7A07903
:101D400010F0F00F12D18DF820208DF821308DF891
:101D50002280ADF8249003C9FFF77EFE4048FFF7CC
:101D600001FE27606760FFF79DFEA4E74FF6FF7155
:101D700027888F4214D039468DF820208DF82130E5
:101D8000BDF820708F420BD1B8F1000F08D1B071AF
:101D90003046FFF7E7FDC4F80080C4F8048030E760
:101DA0008DF820208DF821300898FFF74AFE002892
:101DB000C1D0B8F1000FBED0A3791F2BB1D92288B2
:101DC000ADF83490ADF8302000228DF836308DF823
:101DD00032200CA8A3E72088ADF81400002F6CD0A7
:101DE0004FF6FF7580B2A84267D0A078002864D172
:101DF0004F4530D8A9EB0707C72FCCBF00250125D9
:101E0000002D4CD04546002D95D04FF6FF7120880F
:101E1000884232D001468DF820208DF82130BDF85F
:101E20002000884229D1A379DA0721D41A091FD0CA
:101E30001A090F2A18BF0132B3711CBF62F30713CE
:101E4000B3713046FFF78EFD3368236073686360BB
:101E5000FFF728FED5E6ED1B4D44C72DCDE700BFAB
:101E6000AC100020F4100020F5100020B410002069
:101E70003368236073686360C3E68DF820208DF8B3
:101E800021300898FFF7DDFD00287FF44AAFA379E1
:101E9000304643F00103A371FFF764FDB1E68DF80E
:101EA0002280ADF824908DF820208DF8213003C9D0
:101EB000FFF7D2FD25606560CAE7B8F1000F3FF477
:101EC0003AAF8DF820208DF821300898FFF7B9FD42
:101ED000054600283FF42FAF336804482360736839
:101EE0006360FFF7D5F9FFF7E5FDB1E7AC1000201F
:101EF000F0B587B08DE803006846FFF735FE2F4F39
:101F000006462F4DB0B1BDF80020BDF80430ADF845
:101F1000082043B14FF6FF7392B29A4203D09DE876
:101F20000300FFF79FFD274C28783B78834228D198
:101F300007B0F0BD04AB9DE8030083E80300BDF8E3
:101F40000410BDF81020ADF80C200029EBD090B2A1
:101F50004FF6FF729042E6D03C782878621C02F07F
:101F60000702824221D0174EADF8141006EBC40EC2
:101F700003CB3A7046F83400CEF80410FFF778FD32
:101F8000D1E704EBC000FFF7EFFD0028D0D02B789D
:101F900004EBC30254F833005168FFF763FD2B785C
:101FA000013303F007032B70BEE7FFF71BFD064B61
:101FB0003E702E701E605E60BAE700BFF410002015
:101FC000F5100020B4100020AC100020F8B5034636
:101FD000002852D00025012618785C1C732806D8EA
:101FE000042820D201280AD002281FD0F8BD752865
:101FF00035D02AD3A0F184036F2B33D9F8BD9C1CB4
:102000005B7803F12002D2B2072A0BD803F0070352
:102010009840C0B200F09AF900F0D2F92F4637BBD1
:102020002346D9E71846FFF739F9F7E758789C1C9B
:1020300000F12003DBB2072B16D800F0070006FAE8
:1020400000F0C0B200F08AF9E6E75F789C1C002F30
:10205000E4D00220013F01F090FBFFB2F7E79C1CA7
:102060005D78DBE700F07F00FFF7FEF9D6E702209E
:10207000013F01F082FBFFB2D1E7F8BD704708B520
:10208000FFF7FCFF08BD000008B5FFF7F8FF034BA2
:102090001860BDE80840FFF786BC00BFF8100020BC
:1020A0007047FFF7F1BF0000024B1B681843FFF7B2
:1020B000EBBF00BFF8100020024B1B681840FFF771
:1020C000E3BF00BFF8100020024B1B685840FFF729
:1020D000DBBF00BFF8100020704708B5FFF7FCFF1A
:1020E00008BD000008B5FFF7F8FF034B1860BDE816
:1020F0000840FFF758BC00BFFC1000200020FFF78D
:10210000F1BF012303FA00F0FFF7ECBF012303FA4C
:1021100000F0024B1B681843FFF7E4BFFC100020DF
:10212000012303FA00F0034B1B6823EA0000FFF7CA
:10213000D9BF00BFFC100020012303FA00F0024BBE
:102140001B685840FFF7CEBFFC100020024B1B68F5
:102150001843FFF7C7BF00BFFC100020024B1B68ED
:102160001840FFF7BFBF00BFFC100020024B1B68E8
:102170005840FFF7B7BF00BFFC10002070470000B9
:10218000C0F30723C3EBC30337B500EB43030120C0
:10219000002403F0FF0303F007029040DB080A4A23
:1021A00003EB8303C0B213445D7821FA04F242F3D7
:1021B00000026A40024001346A40052C03F8012FF6
:1021C000F2D103B030BD00BFFF1000200022C0F3E9
:1021D0000723C3EBC30313B500EB430000F0FF007C
:1021E00000F007040849C00800EB800001441046D5
:1021F0008B5CE34003F00103934001321843052A4E
:10220000C0B2F5D102B010BD0011002073B51F247B
:102210000D4BADF804001E680C4B1B681E4326FADC
:1022200004F3DB0706D414F1FF34F8D20025284666
:1022300002B070BDE5B201992846FEF73DFB80B2C1
:102240000128F0D0F3E700BFFC100020F8100020B8
:1022500007B5ADF804000198FFF7D8FF0199FEF724
:102260002BFB03B05DF804FB13B50E4BADF8041067
:102270001B7823B10198FFF7EBFF02B010BD60B1EE
:102280000198FFF7C3FF044601460198FFF778FF66
:1022900001992046FEF710FBEFE70198FFF796FF44
:1022A0000446F5E7A4100020024B93F90000C0F3A8
:1022B000C700704736110020024B187800F0070065
:1022C000704700BF36110020034B187810F007004C
:1022D00018BF0120704700BF36110020014B18784D
:1022E000704700BF38110020024A1378184310705D
:1022F000704700BF38110020024A137823EA00001B
:102300001070704738110020014B1870704700BFE3
:10231000381100200022014B1A707047381100203C
:10232000024A137818431070704700BF391100201B
:10233000024A137823EA0000107070473911002018
:102340000022014B1A70704739110020024A13789D
:1023500018431070704700BF35110020024A1378EF
:1023600023EA000010707047351100200022014B55
:102370001A70704735110020014B1878704700BF64
:1023800037110020704708B5FFF7FCFF08BD0000BB
:1023900008B5044B1978814202D01870FFF7F3FF9B
:1023A00008BD00BF3711002008B5044B1A781AB1D8
:1023B00000201870FFF7E7FF08BD00BF37110020AD
:1023C00010B50D4B0D491B7809780D4C0B430D4989
:1023D000206809780B430C490370097831B10B432D
:1023E000037000F0AFF808B1FFF7DEFF2068BDE82A
:1023F0001040FEF775BE00BF3811002039110020D3
:10240000000C00203511002037110020704708B55E
:10241000FFF7FCFF08BD000010B5064C41EAC00103
:102420002170FFF773FE94F90000C0F3C700FFF7B7
:10243000EEFF10BD36110020002008B5024B1870C9
:10244000FFF7E5FF08BD00BF3611002008B50A4AB6
:1024500092F9003023EA000040B2107042070AD11E
:10246000DBB2834207D0C0F3C700FFF759FEBDE8D7
:102470000840FFF7E1BF08BD3611002008B5002075
:1024800000F0A9F94FF6ED63C31A5842584108BD50
:10249000022000F095B9032000F092B9042000F06A
:1024A0008FB90146042000F093B901460F2000F0D7
:1024B000B2B90146132000F0AEB90020FFF7F9BF12
:1024C00008B50020FFF7F1FFFFF7F7FF08BD000098
:1024D00010B5002400F018F94FF6ED61002000F06F
:1024E0008CF90021022000F073F90021032000F094
:1024F0006FF9124B214604201C6000F069F9214657
:10250000052000F065F92146062000F061F9FF2161
:10251000072000F05DF92146082000F07CF92146F3
:102520000D2000F055F92146182000F074F92146DD
:10253000172000F04DF9FFF7C3FF10BDF810002081
:10254000FFF7C6BF821C00F1080300209A4200D1A9
:10255000704712F8011B0029F8D00130C0B2F5E72E
:102560004FF0FF33002230B5851C15F8014B8C422B
:102570000CD0B3F1FF3F02D1002C08BF134601324B
:10258000D4B2062C62B2F0D15A1C00D130BD18442E
:10259000817030BD002210B5831C08301C780133D7
:1025A0008C4208BF03F8012C8342F7D110BDFFF71E
:1025B000D7BFFFF7EFBF0023C0F80230C3807047DA
:1025C000704708B5FFF7FCFF08BD08B5FFF7F9FF36
:1025D000BDE80840222001F0D0B87047704710B520
:1025E000FFF7FBFF0024FEF7B7FBFFF7F7FFE0B2B2
:1025F000FEF76EFB18B90134052CF8D110BD01208F
:1026000010BD704708B5FFF7FCFF08BD08B5FFF720
:1026100081FEFFF795FE074B1868FFF7CCFF00F02F
:10262000D3FB0020FEF76EFD0020FEF77BFDFFF7D9
:10263000E9FF08BD000C0020202383F311884FF030
:102640008043596A002383F31188034A1180034AA7
:102650001380034A1360704740110020421100208C
:102660003C110020FFF7E8BFF0B5202383F3118869
:102670004FF080435C6A0023A4B283F31188104DAD
:102680004FF47A770F4E2B883288E31A13444FF4B5
:10269000FA629BB207FB03F101F2CF71B1FBF2F1D9
:1026A0004A4302F2E732B2FBF7F2DFF81CE09B1A72
:1026B000DEF8000033800844CEF800002C80F0BD26
:1026C00040110020421100203C11002008B5FFF706
:1026D000CBFF80B208BD10B50446FFF7C5FF001B55
:1026E00080B210BD70470000024B1960024B1860A9
:1026F000704700BF441100204811002008B500F0C9
:1027000047F940F2FF3008BD08B5044800F0F8F87A
:10271000BDE80840024800F0F3B800BF00F8010827
:1027200000FC0108B0F5806F2DE9F84F894602D30F
:102730000020BDE8F88F4FF6FF764FEA400A0AF115
:10274000006B0BF5FC3BBBF800304FEA60289BB2F6
:10275000B34205D1584600F0F5F880B2BDE8F88FD5
:102760004FEA8828144D08F1006707F5FC344FF450
:10277000806221462846FDF7AFFD9BF80030994561
:10278000D6D040F2FE300AEA000005F8009020465C
:1027900000F0B6F8094B07F5FE37A3EB08031D441C
:1027A000295D41F47F41B14202D0204600F0CAF8D1
:1027B0000234BC42F4D1D0E74C1100200008FEF7EF
:1027C00080B2400000F1006000F5FC3000787047F6
:1027D00080B2FFF7A7BF83B25B0003F1006303F58C
:1027E000FC331A78431C9BB25B0003F1006303F5D2
:1027F000FC33187842EA0020704738B50D4684B2A1
:10280000C9B22046FFF78EFF601C290A80B2BDE8DE
:102810003840FFF787BFF8B50C4680B2471CBFB2FF
:1028200043007A0003F1006302F10062861C03F5A5
:10283000FC3302F5FC32B6B2197892F800E072006F
:1028400002F10062C51C02F5FC32ADB213786A00D9
:1028500002F1006202F5FC321B04127843EA0E23F7
:102860000B4343EA0263A34212D0E1B2FFF75AFFDF
:10287000C4F307213846FFF755FFC4F3074130463C
:10288000FFF750FF210E2846BDE8F840FFF74ABF8A
:10289000F8BD00000B4BDA68D2070CD4DA68510798
:1028A0000BD4DA68D2060AD4DB6813F0010F14BF28
:1028B0000420052070470120704702207047032044
:1028C000704700BF0020024073B504460025FFF7A3
:1028D000E1FFFF2601280FD114B9062002B070BD18
:1028E00001950196019B1BB9FFF7D4FF013CF1E76D
:1028F000019B013B0193F5E7002C08BF0620EDE7A3
:1029000038B5054640F6FF70FFF7DEFF052815D104
:102910000B4C40F6FF70236943F0020323616561AD
:10292000236943F040032361FFF7CEFF06281EBF53
:10293000236923F0020323613423E36038BD00BF21
:1029400000200240104B00F178429A4270B50546D3
:102950000E4616D81F20FFF7B7FF052812D10B4CE3
:102960001F20236943F0010323612E80FFF7ACFF92
:1029700006281EBF236923F0010323613423E3608B
:1029800070BD072070BD00BFFEFF070000200240A1
:10299000034B044A5A6002F188325A60704700BF04
:1029A000002002402301674508B5FFF767FD08B91D
:1029B000FFF7C6FDFFF76CFD054B1870FFF76EFDC6
:1029C000044B1880FFF767FDBDE80840FFF769BBBF
:1029D0003A1100204C150020194B1B78D9070AD555
:1029E000184B187800EB8000C0F38F007F2825D8A3
:1029F00010BB012070479A0706D5124B187800EBE0
:102A00008000C0F34F00F1E75B0704D50D4B187849
:102A100000EB8000EAE70C4B1B7863B10B4A12789D
:102A20009342F3D20749087800EB8000584390FBAB
:102A3000F2F080B2DAE70520C0B270477F2070471D
:102A400056150020060C002057150020070C00200A
:102A5000134B1B78D90705D5124B18788008E8B9B5
:102A6000012070479A0703D50E4B18784008F6E707
:102A70005B0705D50B4B18787F28F0D97F2070476E
:102A8000094B1B784BB1094A12789342F2D205499F
:102A90000878584390FBF2F0EEE70120C0B270478F
:102AA00056150020080C002057150020090C0020A6
:102AB000F02808B505D1FFF78FFF4042344BD8709E
:102AC00008BDF12802D1FFF787FFF7E7F22805D10B
:102AD000FFF782FF40422E4B987008BDF32802D1C9
:102AE000FFF77AFFF7E7F92804D1FFF7B1FF284B8A
:102AF000187108BDFA2803D1FFF7AAFF4042F6E794
:102B0000FB2805D1FFF7A4FF4042214B587108BDB7
:102B1000FC2802D1FFF79CFFF7E7F42805D11C4AF7
:102B2000537843F00103537008BDF52804D1184AC7
:102B3000537843F00203F6E7F62804D1144A537899
:102B400043F00403EFE7F72804D1114A537843F028
:102B50000803E8E7F82804D10D4A537843F010033E
:102B6000E1E7FD2805D10B4A137843F00103137008
:102B700008BDFE2804D1074A137843F00203F6E7A4
:102B8000FF28F5D1034A137843F00403EFE700BFB1
:102B90005015002056150020F028414B14D193F910
:102BA0000320002A01DA0022DA7093F9022052B9D8
:102BB00093F903203AB993F9042022B993F9053027
:102BC0000BB9384A13707047F12804D193F90320E8
:102BD000002AE8DCE9E7F22806D193F90220002A6E
:102BE000E3DA00229A70E0E7F32804D193F9022097
:102BF000002AF6DCD9E7F92806D193F90420002A47
:102C0000D3DD00221A71D0E7FA2804D193F9042009
:102C1000002ACADAF5E7FB2806D193F90520002A35
:102C2000C3DA00225A71C0E7FC2804D193F90520C9
:102C3000002AF6DCB9E7F42804D15A7822F0010220
:102C40005A70B2E7F52803D15A7822F00202F7E76A
:102C5000F62803D15A7822F00402F1E7F72803D1CD
:102C60005A7822F00802EBE7F82803D15A7822F0CC
:102C70001002E5E7FD2805D10B490A7822F0010290
:102C80000A7092E7FE2804D107490A7822F002026E
:102C9000F6E7FF2889D104490A7822F00402EFE719
:102CA00050150020571500205615002008B504487F
:102CB000FEF71EFAFFF70AFD024B188008BD00BFA1
:102CC000501500204E1500203A4B10B51888FFF71C
:102CD00002FD39490B78A3B1384A1278824267DC89
:102CE000374C94F902208AB994F9030000285CD18A
:102CF00094F90400002858D194F90500002854D113
:102D000010BD304A14780A226243E7E7FF2B01D056
:102D100001330B70002A02DDFFF75EFEA07094F90C
:102D20000230002B03DAFFF757FE4042A07094F9FF
:102D30000330002B02DDFFF74FFEE07094F9033003
:102D4000002B03DAFFF748FE4042E07094F90220BE
:102D50004AB194F9031031B1B5235A434B431212CF
:102D60001B12A270E37094F90430002B02DDFFF710
:102D70006FFE207194F90430002B03DAFFF768FE30
:102D80004042207194F90530002B02DDFFF760FE10
:102D9000607194F90530002B03DAFFF759FE4042C9
:102DA0006071BDE81040FFF781BFFF2BB0D1BEE7D7
:102DB00010BD00BF4E15002057150020050C002047
:102DC00050150020040C00200023044A1360938057
:102DD000034A1370034A1370704700BF5015002058
:102DE000571500205615002070470220FDF752BCF1
:102DF0000020FDF74FBC0000044A137803F0FB03EA
:102E0000012B02BF5278024B1A80704796150020A2
:102E10008C150020202383F31188002383F311886D
:102E20007047000038B5094C00251046224640EA9C
:102E3000012042F8045F194600F00EFA6368206032
:102E4000AB4214BF2046284638BD00BF58150020AD
:102E5000042938B505460C4613D0052915D002299A
:102E60001DD1202383F311880D4A012100F089FD33
:102E70000C4A2146284600F084FD002383F3118884
:102E800038BDBDE83840FFF7B0BFFFF7BFFBFFF725
:102E9000AFFFFEF71DF9BDE83840FDF7FBBB38BDBD
:102EA0002C4E0008504E00087047000070B50446D4
:102EB00006480D46C3680BB100F00CFB2B462146BB
:102EC000BDE87040024A014800F0BEBA7815002003
:102ED000D52E000838B50446202383F311880378E3
:102EE000042B03D0002383F3118838BD0F4D2A78BB
:102EF000002AF7D00E4B1B78002BF3D003899B07D9
:102F000004D408230B4A012100F08FFD4FF4FA602E
:102F10002B78214658434FF47A7300F2E730B0FB28
:102F2000F3F0800080B2FFF7C1FFDBE774150020EB
:102F30000A0C00208E15002038B590F87450044615
:102F400005F07F03212B67D115F0800525D0002DDA
:102F500062D090F87500022819D003280ED00128FD
:102F60005AD194F878302BB93D4AA2660822E2661D
:102F7000236738BD0023A366E366F9E7B4F8783029
:102F8000002B49D10120374AE066A266F0E7012014
:102F9000354BE066A3660023EAE790F875300A2B0C
:102FA00035D00B2B0CD0092B36D190F878000128A6
:102FB00032D84FD12D4BA3660223E3662C4BD7E7C3
:102FC000B0F87850EDB990F87630264A003318BF43
:102FD00001231370244B1A789AB1202282F31188AE
:102FE0004FF4FA601B78214658434FF47A7300F28D
:102FF000E730B0FBF3F0800080B2FFF757FF85F3B6
:1030000011880023A366E3662367012038BD90F88A
:103010007720154B1A70DFE740F28163B4F8742013
:103020009A4201D0002038BD94F87920616894F864
:1030300078304D6843EA022394F8771094F87620AC
:103040002046A8470028EDD04368A3660368E366DE
:103050000023D9E70120074BE066A366256738BD4A
:103060008E1500200A0C00207415002096150020F3
:10307000F92D00088C1500207047000070B54FF442
:10308000805506460C4C06224FF48051204600F035
:10309000F3FF40F6B830656100F06FFB074930463A
:1030A00000F058FC02222946204600F0E5FF0022ED
:1030B000034BDA6070BD00BF00080140744E000889
:1030C00078150020014B1878704700BF8C15002040
:1030D00010B52022044682F31188124B1978042976
:1030E0004FF0000102D081F3118810BD81F31188E7
:1030F00082F311881A89920704D51B6958690C302C
:1031000000F048FB082322460121064800F08DFC10
:10311000002383F31188044A2368136063685360B3
:1031200010BD00BF101700208E15002010B5202301
:10313000044683F311880D4B1A78042A03D0002328
:1031400083F3118810BD1A89520707D55B691421D2
:1031500058690C3000F02CFB0130F0D006232246D9
:103160000221024800F061FCE9E700BF10170020CF
:1031700007B52023024683F311880A480378042BFD
:1031800005D0002383F3118803B05DF804FB03230B
:10319000ADF80520022101AA8DF8043000F045FCAD
:1031A000EFE700BF1017002007B52023024683F386
:1031B00011880A480378042B05D0002383F3118873
:1031C00003B05DF804FB8DF80430ADF8052003234F
:1031D00001AA022100F029FCEFE700BF1017002030
:1031E0007047000038B500F06FFB00F09DF8FFF766
:1031F00085FAFDF7B2FF1548FFF740FF144900209C
:10320000FFF772FA114C642000F0B7FAFDF7ADFF3A
:103210001048FDF757FF2546FFF7E6FD2378052BFD
:1032200006D12B78052B06D0FFF7CAF8FFF73EFD35
:10323000FDF7A6FFF2E7FFF7C8F9FFF7D0F900287E
:10324000EFD0284600F004FCEBE700BF1017002089
:10325000E13100080C0C0020030A032B18D006D81B
:10326000012B0ED0022B10D0002003460BE0212BA7
:1032700017D0222BF8D1E9B10129F5D185200F4BC8
:1032800001E012200E4B136070473B200D4BFAE714
:10329000C0B20328E8D80C4B0C4953F82030085C26
:1032A000F1E721B10129DFD10920094BEBE7092022
:1032B000084BE8E74020084BE5E700BF5D4F0008FA
:1032C000D34E0008984E0008844E0008944E000823
:1032D000C34E0008AA4E0008E54E0008704770472C
:1032E000FEE7000070B500240C4B03F18000A3F151
:1032F000100126C90439AA4207D353F8041C8A4294
:1033000008D310338342F2D170BD51F8046F42F8F4
:10331000046BF0E742F8044BF1E700BFF44F0008FC
:10332000FEE730BFFDE7000010B5194C00F00CF9C6
:1033300000F07CF800F058FA00F084FA8022154979
:10334000204600F0B7F901230377134B134AD968DD
:1033500044F8140C21F4E0610904090C0A431049F3
:10336000DA60CA6842F08072CA600E490A6842F0A8
:1033700001020A601022DA77202283F8222000233B
:1033800083F3118862B6BDE81040074800F0C4B965
:10339000AC1600208250000800ED00E00003FA05A2
:1033A000F0ED00E0001000E0645000082DE9F84363
:1033B00000264FF0804337461B4C5A6AE56992B2AB
:1033C00004F11C08E08C2B89111A89B28B420ED9AA
:1033D000E169414525D01844801A80B202282CBFEB
:1033E0001018901CBDE8F84380B200F08CBA03447A
:1033F000E3842B68D5F80C904345C3F80480E3615F
:10340000EE6001D100F07AFA87F311882869C84785
:10341000202383F311884FF080435A6AE56992B202
:10342000D0E7BDE8F88300BF80160020054B03F10C
:103430001C02DA611A624FF6FF729A840022DA8463
:10344000704700BF80160020F8B5C260204A0361B3
:10345000064610464FF0804350F81C5F02295B6A15
:1034600038BF022185429CB217460BD1D484D66165
:103470001662318121443560756088B2BDE8F8403C
:1034800000F034BAD08C9BB2241A21448CB21B1A9F
:103490009C4204DA2989641AA4B22D6806E02B89BB
:1034A000A34203D9204480B200F02DFA2B899C421C
:1034B0000CD86B68356073601E604FF6FF736E60EA
:1034C000348129890C1B2C81BB84F8BDE41AE3E705
:1034D0008016002010B41B4C234653F81C1F814259
:1034E0000ED0416802680A600268516000219A4269
:1034F000C16003D0138901890B44138110BC70474C
:1035000000200A689A42E2615360C86002D110BC90
:1035100000F0F4B9138909890B449BB213814FF071
:103520008042506AE28C80B2821A92B29342E5D90C
:103530009B1A9BB2022B2CBFC018023010BC80B269
:1035400000F0E1B9801600200022034B1B605B6095
:103550009A601B615B6170478016002000238268BF
:103560000377054B1B6899689142FBD25A68036048
:1035700042601060586070478016002008B5202314
:1035800083F31188027F0023052A06D8DFE802F0C2
:103590000B050503120E026A13604FF0FF3303623E
:1035A000FFF7DCFF002383F3118808BD026A9368EC
:1035B0000133936090E80C001A6002685360ECE7F6
:1035C000002382680377054B1B6899689142FBD8FA
:1035D0005A6803604260106058607047801600208F
:1035E000054B996908771868026853601A609861FA
:1035F00001230377FCF75CBE801600204FF6FF73B3
:1036000030B5994287B005460A4C10D0A3690A4AE2
:1036100001A8FFF719FF2846FFF7E2FF049B13B14B
:1036200001A8FFF757FFA369186A07B030BDFFF77D
:10363000D7FFF8E7801600207D35000838B50C4D1F
:103640000162AB6981689A680446914203D8BDE87B
:103650003840FFF783BF1846FFF780FF0123AC61B6
:10366000237701462046BDE83840FCF721BE00BF65
:1036700080160020044B1A689B6990689B689842EA
:1036800094BF0020012070478016002010B5084C20
:103690002368A0691A685460226001221A77A36126
:1036A000FFF78EFF0146A069BDE81040FCF700BEA1
:1036B0008016002010B50224826082630122047704
:1036C00000248277084A816151690261416144772F
:1036D000446304630861506100F12402426200F116
:1036E00028028262C26210BD8016002083680168D1
:1036F000A3F1640243F8342C026943F8642C426954
:1037000043F8602C034A43F8442CC268A3F14000FC
:10371000FFF7D0BFC102000810B5202383F3118842
:10372000FFF7E4FF00210446FFF788FF002383F33F
:103730001188204610BD000038B50C4B9C692062F2
:1037400004F12405606AA8420BD1A37F23B9226942
:1037500063691A61226953610F20BDE83840FFF7A1
:103760003FBF03686362FFF7F9FEEBE780160020B6
:10377000202383F31188FFF7DFBF08B5014620231C
:1037800083F311880820FFF739FF002383F31188A2
:1037900008BD000010B5054CA36903601862032042
:1037A000FFF71EFFA369186A10BD00BF8016002036
:1037B000054B9B6921B1036018620320FFF71EBF10
:1037C0004FF0FF30704700BF8016002003682BB118
:1037D0000022026019621846FFF7C0BE704700233E
:1037E0000060406083607047024B034A1A60034ADE
:1037F0005A607047E8160020D817002000500020BB
:1038000070B50A4C431E25684E42A81801380B4477
:1038100008443040334062680344934203D89D42D9
:1038200001D8236070BD002070BD00BFE8160020E5
:1038300008B5202383F31188FFF7E2FF002383F309
:10384000118808BD0548064B103040F8103C002395
:1038500040F8083C40F8043CFFF7C1BFF0160020D8
:103860003138000880B500AFEFF30983203383F3CC
:103870000988002383F3118880BD000098B52023B8
:1038800000AF83F311880D4B5B6813F4006312D013
:10389000EFF309844FF0807344F8043CA4F1200353
:1038A00083F30988FFF7E6FE18B1054B44F8083C9E
:1038B00098BD044BFAE783F3118898BD00ED00E052
:1038C000D1020008D402000808B500F04BFB0548FF
:1038D00000F09EFB00F02CF800F01CFFBDE8084053
:1038E00000F002B8D450000800F00CBC4FF0804348
:1038F000002258631A610222DA60704700224FF0FA
:103900008043DA6070474FF080435863704710B5CA
:10391000044690F8763080F87E3000F061FD6368F0
:103920001B6813B10121204698470323237010BD63
:1039300000F050BD01230370002300F12C0243600E
:1039400000F1480142F8043B8A429361FAD10381B5
:103950004381704738B50446202383F3118800253E
:10396000416000F10C0300F12C0243F8045B934228
:10397000FBD1204600F0C8FD0223237085F3118897
:1039800038BD70B500EB8103054650690E461446FC
:10399000DA6018B11422002100F0C4FEA06918B149
:1039A0001422002100F0BEFE31462846BDE87040DA
:1039B00000F020BDF8B504460027038900F110058A
:1039C00003F001030381438900F12C0603F0010396
:1039D00043812B6873B1586920B16FF001010C303D
:1039E000FFF7F4FE2B68986920B16FF001010C30ED
:1039F000FFF7ECFE45F8047BB542EAD12046BDE86E
:103A0000F84000F0A7BDF0B4012500EB8104E468A4
:103A10004789A4698D403D43458123600023A2600E
:103A20006360E360F0BC00F0DFBDF0B4012500EBA3
:103A30008104E468078964698D403D430581236002
:103A40000023A2606360E360F0BC00F0EDBD000005
:103A5000037810B5052B0BD1064C0420236C43F0E2
:103A600010032364FFF789FE236C23F01003236403
:103A700010BD00BF005C004002232DE9F04103703F
:103A8000002304464FF020081D46A0F87C3080F843
:103A90007E3080F87F300381438100F10C0600F115
:103AA0002C0733689BB188F311883368586920B1BB
:103AB0006FF001010C30FFF789FE3368986920B17F
:103AC0006FF001010C30FFF781FE85F3118846F895
:103AD000045BBE42E5D184F86450204600F0F8FC57
:103AE00063681B6823B12046BDE8F04100211847F8
:103AF000BDE8F081F8B50378054680F880300523ED
:103B0000037043681B680BB10421984720260027E7
:103B100005F10C042C3523689BB186F311882368CA
:103B2000586920B16FF001010C30FFF74FFE236898
:103B3000986920B16FF001010C30FFF747FE87F361
:103B400011880434AC42E6D1F8BD436890F8802077
:103B50001B6802700BB105211847704790F864305C
:103B600070B5044613B1002380F8643004F1740288
:103B7000204600F01FFD63689B685BBB94F874509F
:103B800015F0600614D194F8753005F07F0545EA0C
:103B9000032540F202339D4200F0FE805AD8022DE8
:103BA00000F0CD803ED8002D72D0012D00F0C180F4
:103BB0000021204600F06CFD0021204600F056FD5B
:103BC00063681B6813B1062120469847062384F8D2
:103BD000643070BD204698470028CFD094F87B20F1
:103BE00094F87A3043EA0223E26E934238BFE366E8
:103BF00094F97430E56E002B4FF0200380F2ED80D5
:103C0000002D00F0DC80092284F8642083F3118801
:103C10000021E36EA26E2046FFF707FF002383F327
:103C2000118870BDB5F5817F00F0A380B5F5407FA8
:103C300035D0B5F5807FBBD194F87630012BB7D164
:103C4000B4F87C3023F00203A4F87C30A666E66664
:103C50002667C3E740F201639D420AD8B5F5C06FFD
:103C600026D2B5F5A06FA3D1684BA666E66623679A
:103C7000B4E7B5F5106F31D040F602439D4258D0FD
:103C8000B5F5006F94D104F17F03A366012323E00F
:103C900004F17C03A36602232567E3669EE794F89C
:103CA0007630012B84D1B4F87C3043F00203CBE7AB
:103CB00094F87920616894F878304D6843EA0223DB
:103CC00094F8771094F876202046A84700283FF40F
:103CD0006FAF4368A3660368E366B9E794F87F2093
:103CE00094F876309A4220D02378042B10D12023E8
:103CF00083F311882046FFF75DFE86F311880321C8
:103D0000636884F87F601B6821700BB12046984778
:103D100094F876304BB184F87F30042323706368C5
:103D20001B6813B10221204698470023A366E3666F
:103D30009DE7374BA3660223E366002397E794F8D9
:103D40007810204611F0800F01F00F010AD000F02A
:103D500023FC012809D002287FF42AAF2D4BE0660E
:103D6000A36675E700F00AFCF3E72B4BE566A36654
:103D70006EE794F87630002B7FF41AAF94F8783021
:103D800013F00F01D1D01A06204602D500F0A8FC8E
:103D9000CBE700F08FFCC8E794F87630002B7FF477
:103DA00007AF94F8783013F00F01BED01B06204601
:103DB00002D500F06DFCB8E700F058FCB5E714221E
:103DC00084F8642083F311882B462A46294620462E
:103DD000FFF719FE85F3118870BD5DB1152284F8D7
:103DE000642083F311880021E36EA26E2046FFF762
:103DF0000AFE13E70B2284F8642083F311882B4614
:103E00002A4629462046FFF710FEE3E70F3900084F
:103E10009C500008985000089A50000838B590F857
:103E200064300446152B29D8DFE803F03E28282803
:103E300028283E28280B29392828282828282828F7
:103E40003E3E90F87B1090F87A20C36E42EA012241
:103E50009A4214D9C268128AB3FBF2F502FB1535F7
:103E60006DB9202383F311882B462A462946FFF794
:103E7000DCFD85F311880A2384F8643038BD1423EF
:103E800084F86430202383F31188002320461A46E7
:103E90001946FFF7B8FD002383F3118838BD036F7F
:103EA00003B198470023E7E7002100F0F1FB002170
:103EB000204600F0DBFB63681B6813B10621204637
:103EC00098470623D8E790F8642038B5152A0446A9
:103ED00022D80123934040F6416213421DD113F4CE
:103EE00080150FD19B0217D50B2380F86430202357
:103EF00083F311882B462A462946FFF796FD85F362
:103F0000118838BDC3689B695B682BB9036F03B127
:103F10009847002384F8643038BD002100F0B8FBD6
:103F20000021204600F0A2FB63681B6813B1062144
:103F3000204698470623EDE700F16043090103F5A9
:103F40006143C9B283F80013012300F01F02400946
:103F5000800000F16040934000F56140C0F880317E
:103F6000036070470B4B4FF0FF311A690022196153
:103F70001A61D868D960DA60DA6942F08052DA6191
:103F8000DA6942F00062DA61034A136843F480732D
:103F9000136070470010024000700040194B1A680F
:103FA00042F001021A601A689007FCD51A6802F004
:103FB000F9021A6000225A605A6812F00C0FFBD105
:103FC0001A6842F480321A601A689103FCD55A6864
:103FD00042F4E8125A601A6842F080721A601A6855
:103FE0009201FCD51221084A5A60084A11605A68A9
:103FF00042F002025A605A6802F00C02082AFAD112
:10400000704700BF0010024000641D000020024005
:10401000174A936943F07D0393610268154BDA6098
:1040200082685A6042681A60C26803F58063DA6089
:1040300042695A6002691A608269C3F80C24026AF4
:10404000C3F80424C269C3F80024426AC3F80C28E8
:10405000C26AC3F80428826AC3F80028026BC3F856
:104060000C2C826BC3F8042C426BC3F8002C7047F5
:104070000010024000080140032AF0B528D1016178
:104080000024154B08269F5C25462346224611F046
:10409000800F4FEA03134FEA04144FEA02124FEA6B
:1040A00005150CBF43F00F033C4311F4004F0CBF48
:1040B00042F00F023D43013E4FEA4101E7D1416822
:1040C0000A402A4342600268134023430360F0BD64
:1040D000042A08BF4161D3E79E5000084FF0804397
:1040E0001A6910B5920708D500241C61202383F3B8
:1040F0001188FFF75BF984F31188BDE81040FFF7E2
:10410000BDBB00000E4A0821D3691C2043F0010307
:10411000D3610C4A536843F4006353604FF080430B
:1041200048F69F429A624FF6FF72DA6200229A6165
:104130005A63DA605A6001225A611A60FFF7FCBEC6
:1041400000100240002004E00D4B00011B6D10B573
:1041500003F1804303F5C043C418C358104603F16C
:10416000005303F540535B006260141A00280C44AE
:1041700000DC10BD2488023843F8044BF5E700BF8B
:10418000005C00402DE9F74F8F4D6C6C670505D53D
:104190006FF480638D486B64FFF76EFC260509D5CC
:1041A0002B6C8A4843F008032B646FF400636B6444
:1041B000FFF7A0FCE0040DD5834DAB6C190406D4C9
:1041C0002B6C824823F008032B64FFF7BEFC6FF4CE
:1041D00080536B64A20508D57C484368DB6803B153
:1041E00098476FF40072784B5A64784EDFF8E0819C
:1041F000230404D403B0BDE8F04FFFF73FBB04F045
:104200000F04A50005F1804505F5B845D5F800A0D7
:10421000A71C06EB87031AF0800FD3F8049026D072
:104220002A68D9F8143002EA080242F400422A60EF
:1042300019695A6818680A44801A5A602DD0B9F86A
:104240001020824228BF024698681A610144996092
:104250002046FFF779FF2B6823F4F04323F0400357
:1042600083F0300343F4004343F080032B601AF4DF
:10427000004F0FD02B681AF4006F03EA080343F0D5
:1042800080032B6025D006EB87077B6821465B689F
:10429000304698474C4B5C6CAAE7012303FA04F2C2
:1042A000338923EA02033381D9F8083013B1214658
:1042B00030469847202383F3118806EB87035B6819
:1042C000002158690C30FFF781FA002383F311882D
:1042D000CDE73D4AD9F81830126DD3F808A002F1A5
:1042E000804202F5C04202EB04118A68D1F80CE06A
:1042F00002F1005202F540525200CEF30901009241
:1043000093468A1C0AF102000192019AA2EB000C6A
:10431000D444BCF1010F40D84808B1EB400F18BF9E
:10432000009A2EF0010E18BF52F820204FEA8E5E40
:104330004FEA9E5E18BF0AF80E209A680A449A60F7
:104340005A680A445A601A68521A1A601A8A013A5C
:1043500092B21A82B9F812308B4200D83ABB0123CC
:1043600003FA04F2738923EA0203738106EB8703DD
:104370005B68DB6813B1214630469847202383F3FE
:10438000118806EB87077B68986941680C30FFF756
:104390001DFA002383F311887CE75BF804CB02301D
:1043A00000F804CC4FEA1C2C00F803CCADE72B68D6
:1043B00023F4904323F0700383F4405343F4004309
:1043C00043F080032B6065E7005C0040101700207D
:1043D0000F07FFFF0148FFF7ADBA00BF101700201D
:1043E00090F87E30024A43F08003D364704700BFE8
:1043F000005C004000EB8103F0B5DE68336813F029
:10440000030353D0022B54D9032B4FD14FF4C06276
:104410002D4B0F011C6D736904F1804404F5C044F9
:104420003D1973B100236B60338AD0F884E0013307
:1044300023F001037344C0F8843042F0200247F8AF
:1044400004E0B369C3B1748A3E2C04F1FF3332D95E
:1044500043F01F0301331D4E5B1146EA83239BB2D9
:10446000EB60D0F88430013424F001041C44C0F81F
:10447000844042F40052AB6048F2800042EA0103FB
:1044800023F47843890023F0F00301F1804101F522
:10449000B841034322F4F1620B6022F007020B687B
:1044A0005204520C5A4002430A60F0BD4FF40072AD
:1044B000AEE70022ACE7022643F00103013393FB91
:1044C000F6F39B02CBE700BF005C00400080FFFFDB
:1044D00010B4002180240A4B19655964DC644468D7
:1044E000E4688C420CBF4FF41C444FF41E441C641F
:1044F0004023C0F88430034B10BCC360FFF77ABF81
:10450000005C0040B0500008027838B5012A04462B
:1045100018D10D4B984210D10C490D4DCB69132089
:1045200043F40003CB612A640D21FFF705FD0E2142
:104530001420FFF701FD00232B642046BDE838401E
:10454000FFF7C6BF38BD00BF1017002000100240A3
:10455000005C004040230122C0F8843048F2800013
:10456000930003F1804303F5B84319680132014316
:10457000082A19601860F3D170470000054B53F802
:10458000210010F4405004D0B0F5805F0CBF012032
:1045900002207047005C0040054B53F8210010F0EA
:1045A000300003D010280CBF01200220704700BF4C
:1045B000005C00400B4B1B6D03F1804303F5C043CF
:1045C00003EB01118B6803F1005303F540535B00CB
:1045D00003F1100153F8040B8B4222F8020BF9D1BE
:1045E000704700BF005C004000EB8100C06882693A
:1045F00013689BB90123890001F1804101F5B8419D
:1046000013820B6823F4904323F0700383F4405328
:1046100043F4004343F080030B607047408A034437
:10462000013BB3FBF0F3E6E700EB810010B50C466D
:10463000C1684B690A8A18689968824228BF024695
:1046400020461A61FFF780FDA10001F1804101F5CC
:10465000B8410B6823F4F04323F0400383F03003A8
:1046600043F4004343F080030B6010BD890001F167
:10467000804101F5B8410B6823F4904323F07003A7
:1046800083F4805343F4004343F080030B6070478E
:10469000890001F1804101F5B8410B6823F4F04332
:1046A00023F0400383F0100343F4004343F08003FE
:1046B0000B607047890001F1804101F5B8410B683A
:1046C00003F44053B3F5405F09D00B6823F4F04383
:1046D00023F0400343F4204343F080030B60704712
:1046E000890001F1804101F5B8410B6803F0300306
:1046F000302B0BD00B6823F4F04323F0400383F0FE
:10470000200343F4004343F080030B607047FFF73E
:1047100045BC0000024A536843F000735360704781
:104720000000014070B4860746D0541E002A41D0D4
:10473000CAB2034602E014F1FF343BD303F8012B65
:104740009D07F8D1032C2ED9CDB245EA05250F2CB3
:1047500045EA054519D9264603F11002103E0F2EF1
:1047600042F8105C42F80C5C42F8085C42F8045CC9
:1047700002F11002F2D8A4F1100222F00F0204F0AC
:104780000F041032032C13440DD91E462246043A5E
:10479000032A46F8045BFAD8221F22F003020432EF
:1047A000134404F003042CB1C9B21C4403F8011BE8
:1047B0009C42FBD170BC704714460346C2E700BF61
:1047C000024B13B1024800F005B87047000000002A
:1047D000E1470008002301461A46184600F01EB8BB
:1047E00038B50A4C0A4D641BA4100AD004F180436A
:1047F000013B05EB8305013C55F804399847002C33
:10480000F9D1BDE8384000F06DB800BF6C01000878
:1048100068010008704700BF704700BF2DE9F843EA
:104820002C4D0646286898460F469146FFF7F2FF42
:10483000294B1C68D4F84831002B3ED05A681F2AF7
:104840001CDC02F1010E76B1012103EB8204C4F8F5
:104850008890D3F8880191400843022EC3F888015C
:10486000C4F8088123D00232C3F804E0286843F872
:104870002270FFF7D1FF0020BDE8F883174B0BB380
:104880004FF4C870AFF300800346D8B10020D4F8CD
:1048900048114FF0010E586019600246C4F84831C3
:1048A000C3F88801C3F88C01002EDCD0CCE7D3F824
:1048B0008C010143C3F88C11D5E704F5A673C4F845
:1048C0004831BBE72868FFF7A7FF4FF0FF30BDE88E
:1048D000F88300BF481000201051000800000000BD
:0448E000F8B500BF68
:0448E400F8B500BF64
:1048E80029001E001F0020002100220023002400B0
:1048F8002500260027002D002E004C002B00140058
:104908001A000800150017001C0018000C001200FF
:1049180013002F0030003100390004001600070092
:1049280009000A000B000D000E000F0033003400D0
:1049380035002800E10001001D001B0006001900D9
:10494800050011001000360037003800E500E700C8
:10495800E000E2000100035101002C0001002A00E0
:10496800010002510100E600E400055129001E0083
:104978001F0020002100220023002400250026001B
:1049880027002D002E004C002B0014001A000900EF
:1049980013000A000D000F0018001C0033002F0040
:1049A8003000310039000400150016001700070018
:1049B8000B00110008000C0012003400350028001C
:1049C800E10001001D001B000600190005000E0093
:1049D8001000360037003800E500E700E000E2008C
:1049E8000100035101002C0001002A0001000251BE
:1049F8000100E600E400055101003A003B003C00DC
:104A08003D003E003F00400041004200430044009A
:104A180045000100010001005200010001000100F1
:104A28000100010001000100010001000100010076
:104A38000100500051004F004B000100010001002F
:104A48000100010001000100010001000100010056
:104A58004A0001004D004E00010001000100010064
:104A680001000100010001000100010001000451E2
:104A78000100010001000100010001000100010026
:104A88000100010001003A003B003C003D003E00EF
:104A98003F0040004100420043004400450001003F
:104AA8000100010052000100010001005F006000E8
:104AB800610056005500010001000100010050008E
:104AC80051004F004B0001005C005D005E00570084
:104AD8005400010001000100010001004A0001002A
:104AE8004D004E00010059005A005B0063000100B0
:104AF80001000100010001000100010001000100A6
:104B080001006200010004510100010001000100E0
:104B1800F75C010001000100010001000100010033
:104B280001000100010001000100F85C0100010022
:104B38000100010001000100010001000100010065
:104B48000100010001000100010001000100010055
:104B58000100010001000100010001000100010045
:104B68000100010001000100010001000100010035
:104B78000100010001000100010001000100010025
:104B88000100010001000100010001000100010015
:104B9800010001000100010001000100F45C3A007D
:104BA8003B003C003D003E003F0040004100420009
:104BB800430044004500530001000100F95CB300C4
:104BC800B200B500010001000100F55CF65C0100CF
:104BD800010001000100FB5CFA5CFC5CBE00BD004A
:104BE80001000100010001000100010001000100B5
:104BF80001000100AA00A800A900AC00AB00010058
:104C08000100010001000100010001000100010094
:104C1800010001000100AE000100010001000100D7
:104C2800010001000100010002E36403E30002E364
:104C38005303E30002E37003E30002E3015203E3DA
:104C48000002E3015103E30002E3015003E3000221
:104C5800E3014F03E3000000000000000000000033
:104C6800000000000000000000000000000000003C
:104C7800000000000000000000000000000000002C
:104C8800000000000000000000000000000000001C
:104C9800000000000000000000000000000000000C
:104CA80000000000000000000000000000000000FC
:104CB80000000000000000000000000000000000EC
:104CC80000000000000000000000000000000000DC
:104CD80000000000000000000000000000002A2B77
:104CE8002800000000000000000000000000000094
:104CF8000029000000002C1E3420212224342627FD
:104D0800252E362D3738271E1F202122232425261D
:104D18003333362E37381F0405060708090A0B0CEB
:104D28000D0E0F101112131415161718191A1B1C33
:104D38001D2F3130232D350405060708090A0B0CF1
:104D48000D0E0F101112131415161718191A1B1C13
:104D58001D2F3130354C000000000000000000001D
:104D6800000000000000000000000000000000003B
:104D78000000000000000001010101010100010123
:104D88000101000000000000000000000000000019
:104D980001000100010101010101010101010101FD
:104DA80001010101010101010101010101010101EB
:104DB80001000000010100000000000000000000E8
:104DC80000000000000000000000000000000000DB
:104DD8000001010101000000080C0140090C01401C
:104DE8000D1001400008014001080140020801407F
:104DF800030801400408014005080140070C014070
:104E0800060C0140050C0140030C01400F0801404D
:104E18000B0C01400A0C0140000C0140070801403E
:104E2800060801400300000000000000A92E000849
:104E380000000000080000006015002000000000CD
:104E48000200000000000000030000000000000055
:104E580079300008000000002000000098150020AC
:104E6800000000000200000000000000512E0008B1
:104E7800252E0008392F0008152E0008254F000898
:104E8800294F0008434F0008574F00080418120420
:104E980009023B00020100A0FA0904000001030115
:104EA80001000921110100012240000705810308C2
:104EB800000A090401000103000000092111010092
:104EC800012285000705820320000A120110010053
:104ED8000000406BB1B500010001020301050109A2
:104EE80006A101050719E029E715002501950875B0
:104EF80001810295017508810105081901290595A7
:104F0800057501910295017503910105071900299D
:104F1800FF150026FF00950675088100C0040309E7
:104F2800041803520061006D006F006E00200049F4
:104F3800006D00620061006F00000012036600410E
:104F480000750078004C004900430045000000044B
:104F5800033000000005010902A10185020901A131
:104F68000005091901290515002501950575018117
:104F78000295017503810105010930093115812563
:104F88007F95027508810609381581257F95017579
:104F9800088106050C0A38021581257F95017508D8
:104FA8008106C0C005010980A101850316010026FC
:104FB80003001A81002A8300751095018100C0053D
:104FC8000C0901A1018504160100269C021A0100A2
:104FD8002A9C02751095018100C0000060550008E8
:104FE800D8170020D8170020D817002060550008CF
:104FF80000000000000000000000000060550008EC
:1050080000000000000000000000000060550008DB
:1050180000000000000000000000000060550008CB
:1050280000000000000000000000000060550008BB
:1050380000000000000000000000000060550008AB
:10504800000000000000000000000000605500089B
:105058000000000000000000000000007C50000874
:10506800B01500208016002001000000233300083E
:105078000000000069646C6500006D61696E0016CF
:10508800032004023C080C101418001C1D0000002A
:1050980000000100000004020408080003070808D3
:1050A8000808080808080B0F000000005D3B00080E
:1050B8001D3E0008C73E0008400040009817002029
:1050C8009817002001000000AC170020FFFFFFFF29
:1050D800884B8888B8848888FFFFFFFF888888887D
:1050E80088838888FFFFFFFF8888888888883888B1
:1050F800FFFFFFFF4488888888888888FFFFFFFFB4
:0C5108008888888888888888200C00200F
:105114002D1100201E320A1408280100C530000891
:10512400D13000082D31000871310008A931000880
:10513400000000000C0F0020740F0020DC0F002082
:10514400000000000000000000000000000000005B
:10515400000000000000000000000000000000004B
:10516400000000000000000000000000000000003B
:10517400000000000000000000000000000000002B
:10518400000000000000000000000000000000001B
:10519400000000000000000000000000000000000B
:1051A40000000000000000000000000000000000FB
:1051B40000000000000000000000000000000000EB
:1051C40000000000000000000000000000000000DB
:1051D40000000000000000000100000000000000CA
:1051E4000E33CDAB34126DE6ECDE05000B0000008F
:1051F40000000000000000000000000000000000AB
:10520400000000000000000000000000000000009A
:10521400000000000000000000000000000000008A
:10522400000000000000000000000000000000007A
:0C5554000000000000000000B417002060
:04000005080001DD11
:00000001FF
